{
  "_format": "hh-sol-artifact-1",
  "contractName": "Gallery",
  "sourceName": "contracts/Gallery.sol",
  "abi": [
    {
      "anonymous": false,
      "inputs": [
        {
          "indexed": false,
          "internalType": "uint256",
          "name": "donationID",
          "type": "uint256"
        },
        {
          "indexed": false,
          "internalType": "uint256",
          "name": "tokenID",
          "type": "uint256"
        },
        {
          "indexed": false,
          "internalType": "address",
          "name": "collection",
          "type": "address"
        },
        {
          "indexed": false,
          "internalType": "address",
          "name": "from",
          "type": "address"
        }
      ],
      "name": "Donated",
      "type": "event"
    },
    {
      "anonymous": false,
      "inputs": [
        {
          "indexed": false,
          "internalType": "uint256",
          "name": "donationID",
          "type": "uint256"
        },
        {
          "indexed": false,
          "internalType": "address",
          "name": "buyer",
          "type": "address"
        }
      ],
      "name": "Purchase",
      "type": "event"
    },
    {
      "inputs": [
        {
          "internalType": "uint256",
          "name": "_donationId",
          "type": "uint256"
        }
      ],
      "name": "buy",
      "outputs": [],
      "stateMutability": "payable",
      "type": "function"
    },
    {
      "inputs": [],
      "name": "description",
      "outputs": [
        {
          "internalType": "string",
          "name": "",
          "type": "string"
        }
      ],
      "stateMutability": "view",
      "type": "function"
    },
    {
      "inputs": [
        {
          "internalType": "address",
          "name": "_collection",
          "type": "address"
        },
        {
          "internalType": "uint256",
          "name": "_donationTokenId",
          "type": "uint256"
        },
        {
          "internalType": "uint256",
          "name": "_price",
          "type": "uint256"
        }
      ],
      "name": "donate",
      "outputs": [],
      "stateMutability": "nonpayable",
      "type": "function"
    },
    {
      "inputs": [
        {
          "internalType": "uint256",
          "name": "",
          "type": "uint256"
        }
      ],
      "name": "donations",
      "outputs": [
        {
          "internalType": "address",
          "name": "collection",
          "type": "address"
        },
        {
          "internalType": "uint256",
          "name": "tokenId",
          "type": "uint256"
        },
        {
          "internalType": "address",
          "name": "donator",
          "type": "address"
        },
        {
          "internalType": "uint256",
          "name": "price",
          "type": "uint256"
        },
        {
          "internalType": "bool",
          "name": "sold",
          "type": "bool"
        },
        {
          "internalType": "uint256",
          "name": "receiptId",
          "type": "uint256"
        }
      ],
      "stateMutability": "view",
      "type": "function"
    },
    {
      "inputs": [],
      "name": "goal",
      "outputs": [
        {
          "internalType": "uint256",
          "name": "",
          "type": "uint256"
        }
      ],
      "stateMutability": "view",
      "type": "function"
    },
    {
      "inputs": [],
      "name": "guardian",
      "outputs": [
        {
          "internalType": "address",
          "name": "",
          "type": "address"
        }
      ],
      "stateMutability": "view",
      "type": "function"
    },
    {
      "inputs": [
        {
          "internalType": "string",
          "name": "_name",
          "type": "string"
        },
        {
          "internalType": "string",
          "name": "_description",
          "type": "string"
        },
        {
          "internalType": "address",
          "name": "_guardian",
          "type": "address"
        },
        {
          "internalType": "uint256",
          "name": "_goal",
          "type": "uint256"
        }
      ],
      "name": "init",
      "outputs": [],
      "stateMutability": "nonpayable",
      "type": "function"
    },
    {
      "inputs": [],
      "name": "name",
      "outputs": [
        {
          "internalType": "string",
          "name": "",
          "type": "string"
        }
      ],
      "stateMutability": "view",
      "type": "function"
    },
    {
      "inputs": [],
      "name": "totalDonations",
      "outputs": [
        {
          "internalType": "uint256",
          "name": "",
          "type": "uint256"
        }
      ],
      "stateMutability": "view",
      "type": "function"
    },
    {
      "inputs": [],
      "name": "totalNftDonations",
      "outputs": [
        {
          "internalType": "uint256",
          "name": "",
          "type": "uint256"
        }
      ],
      "stateMutability": "view",
      "type": "function"
    },
    {
      "inputs": [],
      "name": "withdraw",
      "outputs": [],
      "stateMutability": "nonpayable",
      "type": "function"
    }
  ],
  "bytecode": "0x608060405234801561001057600080fd5b5061134b806100206000396000f3fe60806040526004361061009c5760003560e01c8063684155fa11610064578063684155fa146101625780637284e4161461018d578063d4632276146101b8578063d96a094a146101e1578063de2ed893146101fd578063f8626af8146102285761009c565b806306fdde03146100a15780633ccfd60b146100cc57806340193883146100e3578063452a93201461010e5780635edc7c1914610139575b600080fd5b3480156100ad57600080fd5b506100b661026a565b6040516100c39190610efa565b60405180910390f35b3480156100d857600080fd5b506100e16102f8565b005b3480156100ef57600080fd5b506100f86103f3565b6040516101059190610f7c565b60405180910390f35b34801561011a57600080fd5b506101236103f9565b6040516101309190610e47565b60405180910390f35b34801561014557600080fd5b50610160600480360381019061015b9190610cac565b61041f565b005b34801561016e57600080fd5b5061017761049b565b6040516101849190610f7c565b60405180910390f35b34801561019957600080fd5b506101a26104a1565b6040516101af9190610efa565b60405180910390f35b3480156101c457600080fd5b506101df60048036038101906101da9190610c59565b61052f565b005b6101fb60048036038101906101f69190610d4b565b61073e565b005b34801561020957600080fd5b50610212610a8d565b60405161021f9190610f7c565b60405180910390f35b34801561023457600080fd5b5061024f600480360381019061024a9190610d4b565b610a93565b60405161026196959493929190610e99565b60405180910390f35b6002805461027790611157565b80601f01602080910402602001604051908101604052809291908181526020018280546102a390611157565b80156102f05780601f106102c5576101008083540402835291602001916102f0565b820191906000526020600020905b8154815290600101906020018083116102d357829003601f168201915b505050505081565b600660009054906101000a900473ffffffffffffffffffffffffffffffffffffffff1673ffffffffffffffffffffffffffffffffffffffff163373ffffffffffffffffffffffffffffffffffffffff1614610388576040517f08c379a000000000000000000000000000000000000000000000000000000000815260040161037f90610f1c565b60405180910390fd5b600660009054906101000a900473ffffffffffffffffffffffffffffffffffffffff1673ffffffffffffffffffffffffffffffffffffffff166108fc479081150290604051600060405180830381858888f193505050501580156103f0573d6000803e3d6000fd5b50565b60045481565b600660009054906101000a900473ffffffffffffffffffffffffffffffffffffffff1681565b81600660006101000a81548173ffffffffffffffffffffffffffffffffffffffff021916908373ffffffffffffffffffffffffffffffffffffffff1602179055508260039080519060200190610476929190610b1c565b50836002908051906020019061048d929190610b1c565b508060048190555050505050565b60005481565b600380546104ae90611157565b80601f01602080910402602001604051908101604052809291908181526020018280546104da90611157565b80156105275780601f106104fc57610100808354040283529160200191610527565b820191906000526020600020905b81548152906001019060200180831161050a57829003601f168201915b505050505081565b600160005461053e9190611077565b60008190555060006040518060c001604052808573ffffffffffffffffffffffffffffffffffffffff1681526020018481526020013373ffffffffffffffffffffffffffffffffffffffff168152602001838152602001600015158152602001600054815250905080600560008054815260200190815260200160002060008201518160000160006101000a81548173ffffffffffffffffffffffffffffffffffffffff021916908373ffffffffffffffffffffffffffffffffffffffff1602179055506020820151816001015560408201518160020160006101000a81548173ffffffffffffffffffffffffffffffffffffffff021916908373ffffffffffffffffffffffffffffffffffffffff1602179055506060820151816003015560808201518160040160006101000a81548160ff02191690831515021790555060a082015181600501559050508373ffffffffffffffffffffffffffffffffffffffff166323b872dd3330866040518463ffffffff1660e01b81526004016106c793929190610e62565b600060405180830381600087803b1580156106e157600080fd5b505af11580156106f5573d6000803e3d6000fd5b505050507f9444ec93a7771a9c3be292d1a51e11c94460f538e495fda1318cb1a67f21e4b86000548486336040516107309493929190610fc0565b60405180910390a150505050565b6000600560008381526020019081526020016000206040518060c00160405290816000820160009054906101000a900473ffffffffffffffffffffffffffffffffffffffff1673ffffffffffffffffffffffffffffffffffffffff1673ffffffffffffffffffffffffffffffffffffffff168152602001600182015481526020016002820160009054906101000a900473ffffffffffffffffffffffffffffffffffffffff1673ffffffffffffffffffffffffffffffffffffffff1673ffffffffffffffffffffffffffffffffffffffff168152602001600382015481526020016004820160009054906101000a900460ff16151515158152602001600582015481525050905080608001511561088a576040517f08c379a000000000000000000000000000000000000000000000000000000000815260040161088190610f3c565b60405180910390fd5b80606001513410156108d1576040517f08c379a00000000000000000000000000000000000000000000000000000000081526004016108c890610f5c565b60405180910390fd5b806000015173ffffffffffffffffffffffffffffffffffffffff166323b872dd303384602001516040518463ffffffff1660e01b815260040161091693929190610e62565b600060405180830381600087803b15801561093057600080fd5b505af1158015610944573d6000803e3d6000fd5b505050506001816080019015159081151581525050346001546109679190611077565b600181905550806005600084815260200190815260200160002060008201518160000160006101000a81548173ffffffffffffffffffffffffffffffffffffffff021916908373ffffffffffffffffffffffffffffffffffffffff1602179055506020820151816001015560408201518160020160006101000a81548173ffffffffffffffffffffffffffffffffffffffff021916908373ffffffffffffffffffffffffffffffffffffffff1602179055506060820151816003015560808201518160040160006101000a81548160ff02191690831515021790555060a082015181600501559050507f6b8e277b5ac199aea04139b79dce59b078ad22c9648f1bd3083495991809b7708233604051610a81929190610f97565b60405180910390a15050565b60015481565b60056020528060005260406000206000915090508060000160009054906101000a900473ffffffffffffffffffffffffffffffffffffffff16908060010154908060020160009054906101000a900473ffffffffffffffffffffffffffffffffffffffff16908060030154908060040160009054906101000a900460ff16908060050154905086565b828054610b2890611157565b90600052602060002090601f016020900481019282610b4a5760008555610b91565b82601f10610b6357805160ff1916838001178555610b91565b82800160010185558215610b91579182015b82811115610b90578251825591602001919060010190610b75565b5b509050610b9e9190610ba2565b5090565b5b80821115610bbb576000816000905550600101610ba3565b5090565b6000610bd2610bcd8461102a565b611005565b905082815260208101848484011115610bee57610bed61124c565b5b610bf9848285611115565b509392505050565b600081359050610c10816112e7565b92915050565b600082601f830112610c2b57610c2a611247565b5b8135610c3b848260208601610bbf565b91505092915050565b600081359050610c53816112fe565b92915050565b600080600060608486031215610c7257610c71611256565b5b6000610c8086828701610c01565b9350506020610c9186828701610c44565b9250506040610ca286828701610c44565b9150509250925092565b60008060008060808587031215610cc657610cc5611256565b5b600085013567ffffffffffffffff811115610ce457610ce3611251565b5b610cf087828801610c16565b945050602085013567ffffffffffffffff811115610d1157610d10611251565b5b610d1d87828801610c16565b9350506040610d2e87828801610c01565b9250506060610d3f87828801610c44565b91505092959194509250565b600060208284031215610d6157610d60611256565b5b6000610d6f84828501610c44565b91505092915050565b610d81816110cd565b82525050565b610d90816110df565b82525050565b6000610da18261105b565b610dab8185611066565b9350610dbb818560208601611124565b610dc48161125b565b840191505092915050565b6000610ddc601083611066565b9150610de78261126c565b602082019050919050565b6000610dff601183611066565b9150610e0a82611295565b602082019050919050565b6000610e22601b83611066565b9150610e2d826112be565b602082019050919050565b610e418161110b565b82525050565b6000602082019050610e5c6000830184610d78565b92915050565b6000606082019050610e776000830186610d78565b610e846020830185610d78565b610e916040830184610e38565b949350505050565b600060c082019050610eae6000830189610d78565b610ebb6020830188610e38565b610ec86040830187610d78565b610ed56060830186610e38565b610ee26080830185610d87565b610eef60a0830184610e38565b979650505050505050565b60006020820190508181036000830152610f148184610d96565b905092915050565b60006020820190508181036000830152610f3581610dcf565b9050919050565b60006020820190508181036000830152610f5581610df2565b9050919050565b60006020820190508181036000830152610f7581610e15565b9050919050565b6000602082019050610f916000830184610e38565b92915050565b6000604082019050610fac6000830185610e38565b610fb96020830184610d78565b9392505050565b6000608082019050610fd56000830187610e38565b610fe26020830186610e38565b610fef6040830185610d78565b610ffc6060830184610d78565b95945050505050565b600061100f611020565b905061101b8282611189565b919050565b6000604051905090565b600067ffffffffffffffff82111561104557611044611218565b5b61104e8261125b565b9050602081019050919050565b600081519050919050565b600082825260208201905092915050565b60006110828261110b565b915061108d8361110b565b9250827fffffffffffffffffffffffffffffffffffffffffffffffffffffffffffffffff038211156110c2576110c16111ba565b5b828201905092915050565b60006110d8826110eb565b9050919050565b60008115159050919050565b600073ffffffffffffffffffffffffffffffffffffffff82169050919050565b6000819050919050565b82818337600083830152505050565b60005b83811015611142578082015181840152602081019050611127565b83811115611151576000848401525b50505050565b6000600282049050600182168061116f57607f821691505b60208210811415611183576111826111e9565b5b50919050565b6111928261125b565b810181811067ffffffffffffffff821117156111b1576111b0611218565b5b80604052505050565b7f4e487b7100000000000000000000000000000000000000000000000000000000600052601160045260246000fd5b7f4e487b7100000000000000000000000000000000000000000000000000000000600052602260045260246000fd5b7f4e487b7100000000000000000000000000000000000000000000000000000000600052604160045260246000fd5b600080fd5b600080fd5b600080fd5b600080fd5b6000601f19601f8301169050919050565b7f4f4e4c595f42595f475541524449414e00000000000000000000000000000000600082015250565b7f4974656d20616c726561647920736f6c64000000000000000000000000000000600082015250565b7f446f6573206e6f74206d656574206d696e696d756d2070726963650000000000600082015250565b6112f0816110cd565b81146112fb57600080fd5b50565b6113078161110b565b811461131257600080fd5b5056fea26469706673582212205a0f394dc074d5c74b3d96778516266e0c90e7aa2af5d47e16bf608696a0f3b464736f6c63430008070033",
  "linkReferences": {},
  "deployedLinkReferences": {}
}