{
  "_format": "hh-sol-artifact-1",
  "contractName": "GalleryFactory",
  "sourceName": "contracts/GalleryFactory.sol",
  "abi": [
    {
      "inputs": [
        {
          "internalType": "address",
          "name": "_libraryAddress",
          "type": "address"
        }
      ],
      "stateMutability": "nonpayable",
      "type": "constructor"
    },
    {
      "anonymous": false,
      "inputs": [
        {
          "indexed": false,
          "internalType": "address",
          "name": "_galleryAddress",
          "type": "address"
        }
      ],
      "name": "GalleryCreated",
      "type": "event"
    },
    {
      "anonymous": false,
      "inputs": [
        {
          "indexed": true,
          "internalType": "address",
          "name": "previousOwner",
          "type": "address"
        },
        {
          "indexed": true,
          "internalType": "address",
          "name": "newOwner",
          "type": "address"
        }
      ],
      "name": "OwnershipTransferred",
      "type": "event"
    },
    {
      "inputs": [
        {
          "internalType": "string",
          "name": "_name",
          "type": "string"
        },
        {
          "internalType": "string",
          "name": "_description",
          "type": "string"
        },
        {
          "internalType": "uint256",
          "name": "_goal",
          "type": "uint256"
        }
      ],
      "name": "createGallery",
      "outputs": [],
      "stateMutability": "nonpayable",
      "type": "function"
    },
    {
      "inputs": [
        {
          "internalType": "uint256",
          "name": "",
          "type": "uint256"
        }
      ],
      "name": "galleries",
      "outputs": [
        {
          "internalType": "address",
          "name": "",
          "type": "address"
        }
      ],
      "stateMutability": "view",
      "type": "function"
    },
    {
      "inputs": [],
      "name": "libraryAddress",
      "outputs": [
        {
          "internalType": "address",
          "name": "",
          "type": "address"
        }
      ],
      "stateMutability": "view",
      "type": "function"
    },
    {
      "inputs": [],
      "name": "owner",
      "outputs": [
        {
          "internalType": "address",
          "name": "",
          "type": "address"
        }
      ],
      "stateMutability": "view",
      "type": "function"
    },
    {
      "inputs": [],
      "name": "renounceOwnership",
      "outputs": [],
      "stateMutability": "nonpayable",
      "type": "function"
    },
    {
      "inputs": [
        {
          "internalType": "address",
          "name": "_libraryAddress",
          "type": "address"
        }
      ],
      "name": "setLibraryAddress",
      "outputs": [],
      "stateMutability": "nonpayable",
      "type": "function"
    },
    {
      "inputs": [],
      "name": "totalGalleries",
      "outputs": [
        {
          "internalType": "uint256",
          "name": "",
          "type": "uint256"
        }
      ],
      "stateMutability": "view",
      "type": "function"
    },
    {
      "inputs": [
        {
          "internalType": "address",
          "name": "newOwner",
          "type": "address"
        }
      ],
      "name": "transferOwnership",
      "outputs": [],
      "stateMutability": "nonpayable",
      "type": "function"
    }
  ],
  "bytecode": "0x60806040523480156200001157600080fd5b5060405162000f6238038062000f62833981810160405281019062000037919062000182565b620000576200004b6200009f60201b60201c565b620000a760201b60201c565b80600160006101000a81548173ffffffffffffffffffffffffffffffffffffffff021916908373ffffffffffffffffffffffffffffffffffffffff1602179055505062000207565b600033905090565b60008060009054906101000a900473ffffffffffffffffffffffffffffffffffffffff169050816000806101000a81548173ffffffffffffffffffffffffffffffffffffffff021916908373ffffffffffffffffffffffffffffffffffffffff1602179055508173ffffffffffffffffffffffffffffffffffffffff168173ffffffffffffffffffffffffffffffffffffffff167f8be0079c531659141344cd1fd0a4f28419497f9722a3daafe3b4186f6b6457e060405160405180910390a35050565b6000815190506200017c81620001ed565b92915050565b6000602082840312156200019b576200019a620001e8565b5b6000620001ab848285016200016b565b91505092915050565b6000620001c182620001c8565b9050919050565b600073ffffffffffffffffffffffffffffffffffffffff82169050919050565b600080fd5b620001f881620001b4565b81146200020457600080fd5b50565b610d4b80620002176000396000f3fe608060405234801561001057600080fd5b50600436106100885760003560e01c8063715018a61161005b578063715018a6146101135780638da5cb5b1461011d578063b816f5131461013b578063f2fde38b1461015957610088565b806301640ca41461008d5780632d14fe27146100bd5780632dd25c1d146100db5780634863ba17146100f7575b600080fd5b6100a760048036038101906100a29190610876565b610175565b6040516100b49190610963565b60405180910390f35b6100c56101a8565b6040516100d29190610a31565b60405180910390f35b6100f560048036038101906100f091906107eb565b6101ae565b005b610111600480360381019061010c91906107be565b6102f4565b005b61011b6103b4565b005b61012561043c565b6040516101329190610963565b60405180910390f35b610143610465565b6040516101509190610963565b60405180910390f35b610173600480360381019061016e91906107be565b61048b565b005b60036020528060005260406000206000915054906101000a900473ffffffffffffffffffffffffffffffffffffffff1681565b60025481565b60006101db600160009054906101000a900473ffffffffffffffffffffffffffffffffffffffff16610583565b90508073ffffffffffffffffffffffffffffffffffffffff16635edc7c19858533866040518563ffffffff1660e01b815260040161021c949392919061097e565b600060405180830381600087803b15801561023657600080fd5b505af115801561024a573d6000803e3d6000fd5b50505050600160025461025d9190610abe565b6002819055508060036000600254815260200190815260200160002060006101000a81548173ffffffffffffffffffffffffffffffffffffffff021916908373ffffffffffffffffffffffffffffffffffffffff1602179055507fc30e4044f4083c5ce0d222158fa577a9057f0601cab2ecba79b98f792553acb8816040516102e69190610963565b60405180910390a150505050565b6102fc610658565b73ffffffffffffffffffffffffffffffffffffffff1661031a61043c565b73ffffffffffffffffffffffffffffffffffffffff1614610370576040517f08c379a000000000000000000000000000000000000000000000000000000000815260040161036790610a11565b60405180910390fd5b80600160006101000a81548173ffffffffffffffffffffffffffffffffffffffff021916908373ffffffffffffffffffffffffffffffffffffffff16021790555050565b6103bc610658565b73ffffffffffffffffffffffffffffffffffffffff166103da61043c565b73ffffffffffffffffffffffffffffffffffffffff1614610430576040517f08c379a000000000000000000000000000000000000000000000000000000000815260040161042790610a11565b60405180910390fd5b61043a6000610660565b565b60008060009054906101000a900473ffffffffffffffffffffffffffffffffffffffff16905090565b600160009054906101000a900473ffffffffffffffffffffffffffffffffffffffff1681565b610493610658565b73ffffffffffffffffffffffffffffffffffffffff166104b161043c565b73ffffffffffffffffffffffffffffffffffffffff1614610507576040517f08c379a00000000000000000000000000000000000000000000000000000000081526004016104fe90610a11565b60405180910390fd5b600073ffffffffffffffffffffffffffffffffffffffff168173ffffffffffffffffffffffffffffffffffffffff161415610577576040517f08c379a000000000000000000000000000000000000000000000000000000000815260040161056e906109d1565b60405180910390fd5b61058081610660565b50565b60006040517f3d602d80600a3d3981f3363d3d373d3d3d363d7300000000000000000000000081528260601b60148201527f5af43d82803e903d91602b57fd5bf3000000000000000000000000000000000060288201526037816000f0915050600073ffffffffffffffffffffffffffffffffffffffff168173ffffffffffffffffffffffffffffffffffffffff161415610653576040517f08c379a000000000000000000000000000000000000000000000000000000000815260040161064a906109f1565b60405180910390fd5b919050565b600033905090565b60008060009054906101000a900473ffffffffffffffffffffffffffffffffffffffff169050816000806101000a81548173ffffffffffffffffffffffffffffffffffffffff021916908373ffffffffffffffffffffffffffffffffffffffff1602179055508173ffffffffffffffffffffffffffffffffffffffff168173ffffffffffffffffffffffffffffffffffffffff167f8be0079c531659141344cd1fd0a4f28419497f9722a3daafe3b4186f6b6457e060405160405180910390a35050565b600061073761073284610a71565b610a4c565b90508281526020810184848401111561075357610752610c26565b5b61075e848285610b50565b509392505050565b60008135905061077581610ce7565b92915050565b600082601f8301126107905761078f610c21565b5b81356107a0848260208601610724565b91505092915050565b6000813590506107b881610cfe565b92915050565b6000602082840312156107d4576107d3610c30565b5b60006107e284828501610766565b91505092915050565b60008060006060848603121561080457610803610c30565b5b600084013567ffffffffffffffff81111561082257610821610c2b565b5b61082e8682870161077b565b935050602084013567ffffffffffffffff81111561084f5761084e610c2b565b5b61085b8682870161077b565b925050604061086c868287016107a9565b9150509250925092565b60006020828403121561088c5761088b610c30565b5b600061089a848285016107a9565b91505092915050565b6108ac81610b14565b82525050565b60006108bd82610aa2565b6108c78185610aad565b93506108d7818560208601610b5f565b6108e081610c35565b840191505092915050565b60006108f8602683610aad565b915061090382610c46565b604082019050919050565b600061091b601683610aad565b915061092682610c95565b602082019050919050565b600061093e602083610aad565b915061094982610cbe565b602082019050919050565b61095d81610b46565b82525050565b600060208201905061097860008301846108a3565b92915050565b6000608082019050818103600083015261099881876108b2565b905081810360208301526109ac81866108b2565b90506109bb60408301856108a3565b6109c86060830184610954565b95945050505050565b600060208201905081810360008301526109ea816108eb565b9050919050565b60006020820190508181036000830152610a0a8161090e565b9050919050565b60006020820190508181036000830152610a2a81610931565b9050919050565b6000602082019050610a466000830184610954565b92915050565b6000610a56610a67565b9050610a628282610b92565b919050565b6000604051905090565b600067ffffffffffffffff821115610a8c57610a8b610bf2565b5b610a9582610c35565b9050602081019050919050565b600081519050919050565b600082825260208201905092915050565b6000610ac982610b46565b9150610ad483610b46565b9250827fffffffffffffffffffffffffffffffffffffffffffffffffffffffffffffffff03821115610b0957610b08610bc3565b5b828201905092915050565b6000610b1f82610b26565b9050919050565b600073ffffffffffffffffffffffffffffffffffffffff82169050919050565b6000819050919050565b82818337600083830152505050565b60005b83811015610b7d578082015181840152602081019050610b62565b83811115610b8c576000848401525b50505050565b610b9b82610c35565b810181811067ffffffffffffffff82111715610bba57610bb9610bf2565b5b80604052505050565b7f4e487b7100000000000000000000000000000000000000000000000000000000600052601160045260246000fd5b7f4e487b7100000000000000000000000000000000000000000000000000000000600052604160045260246000fd5b600080fd5b600080fd5b600080fd5b600080fd5b6000601f19601f8301169050919050565b7f4f776e61626c653a206e6577206f776e657220697320746865207a65726f206160008201527f6464726573730000000000000000000000000000000000000000000000000000602082015250565b7f455243313136373a20637265617465206661696c656400000000000000000000600082015250565b7f4f776e61626c653a2063616c6c6572206973206e6f7420746865206f776e6572600082015250565b610cf081610b14565b8114610cfb57600080fd5b50565b610d0781610b46565b8114610d1257600080fd5b5056fea264697066735822122036e3d469dd47a8b8235190ac62b9d7ad9556f93f08a40c9b4d04468d102f0a3f64736f6c63430008070033",
  "linkReferences": {},
  "deployedLinkReferences": {}
}