{
  "_format": "hh-sol-artifact-1",
  "contractName": "TestNFT",
  "sourceName": "contracts/test/TestNFT.sol",
  "abi": [
    {
      "inputs": [
        {
          "internalType": "string",
          "name": "name",
          "type": "string"
        },
        {
          "internalType": "string",
          "name": "symbol",
          "type": "string"
        }
      ],
      "stateMutability": "nonpayable",
      "type": "constructor"
    },
    {
      "anonymous": false,
      "inputs": [
        {
          "indexed": true,
          "internalType": "address",
          "name": "owner",
          "type": "address"
        },
        {
          "indexed": true,
          "internalType": "address",
          "name": "approved",
          "type": "address"
        },
        {
          "indexed": true,
          "internalType": "uint256",
          "name": "tokenId",
          "type": "uint256"
        }
      ],
      "name": "Approval",
      "type": "event"
    },
    {
      "anonymous": false,
      "inputs": [
        {
          "indexed": true,
          "internalType": "address",
          "name": "owner",
          "type": "address"
        },
        {
          "indexed": true,
          "internalType": "address",
          "name": "operator",
          "type": "address"
        },
        {
          "indexed": false,
          "internalType": "bool",
          "name": "approved",
          "type": "bool"
        }
      ],
      "name": "ApprovalForAll",
      "type": "event"
    },
    {
      "anonymous": false,
      "inputs": [
        {
          "indexed": true,
          "internalType": "address",
          "name": "from",
          "type": "address"
        },
        {
          "indexed": true,
          "internalType": "address",
          "name": "to",
          "type": "address"
        },
        {
          "indexed": true,
          "internalType": "uint256",
          "name": "tokenId",
          "type": "uint256"
        }
      ],
      "name": "Transfer",
      "type": "event"
    },
    {
      "inputs": [
        {
          "internalType": "address",
          "name": "to",
          "type": "address"
        },
        {
          "internalType": "uint256",
          "name": "tokenId",
          "type": "uint256"
        }
      ],
      "name": "approve",
      "outputs": [],
      "stateMutability": "nonpayable",
      "type": "function"
    },
    {
      "inputs": [
        {
          "internalType": "address",
          "name": "owner",
          "type": "address"
        }
      ],
      "name": "balanceOf",
      "outputs": [
        {
          "internalType": "uint256",
          "name": "",
          "type": "uint256"
        }
      ],
      "stateMutability": "view",
      "type": "function"
    },
    {
      "inputs": [
        {
          "internalType": "uint256",
          "name": "tokenId",
          "type": "uint256"
        }
      ],
      "name": "getApproved",
      "outputs": [
        {
          "internalType": "address",
          "name": "",
          "type": "address"
        }
      ],
      "stateMutability": "view",
      "type": "function"
    },
    {
      "inputs": [
        {
          "internalType": "address",
          "name": "owner",
          "type": "address"
        },
        {
          "internalType": "address",
          "name": "operator",
          "type": "address"
        }
      ],
      "name": "isApprovedForAll",
      "outputs": [
        {
          "internalType": "bool",
          "name": "",
          "type": "bool"
        }
      ],
      "stateMutability": "view",
      "type": "function"
    },
    {
      "inputs": [],
      "name": "mint",
      "outputs": [
        {
          "internalType": "uint256",
          "name": "",
          "type": "uint256"
        }
      ],
      "stateMutability": "nonpayable",
      "type": "function"
    },
    {
      "inputs": [],
      "name": "name",
      "outputs": [
        {
          "internalType": "string",
          "name": "",
          "type": "string"
        }
      ],
      "stateMutability": "view",
      "type": "function"
    },
    {
      "inputs": [
        {
          "internalType": "uint256",
          "name": "tokenId",
          "type": "uint256"
        }
      ],
      "name": "ownerOf",
      "outputs": [
        {
          "internalType": "address",
          "name": "",
          "type": "address"
        }
      ],
      "stateMutability": "view",
      "type": "function"
    },
    {
      "inputs": [
        {
          "internalType": "address",
          "name": "from",
          "type": "address"
        },
        {
          "internalType": "address",
          "name": "to",
          "type": "address"
        },
        {
          "internalType": "uint256",
          "name": "tokenId",
          "type": "uint256"
        }
      ],
      "name": "safeTransferFrom",
      "outputs": [],
      "stateMutability": "nonpayable",
      "type": "function"
    },
    {
      "inputs": [
        {
          "internalType": "address",
          "name": "from",
          "type": "address"
        },
        {
          "internalType": "address",
          "name": "to",
          "type": "address"
        },
        {
          "internalType": "uint256",
          "name": "tokenId",
          "type": "uint256"
        },
        {
          "internalType": "bytes",
          "name": "_data",
          "type": "bytes"
        }
      ],
      "name": "safeTransferFrom",
      "outputs": [],
      "stateMutability": "nonpayable",
      "type": "function"
    },
    {
      "inputs": [
        {
          "internalType": "address",
          "name": "operator",
          "type": "address"
        },
        {
          "internalType": "bool",
          "name": "approved",
          "type": "bool"
        }
      ],
      "name": "setApprovalForAll",
      "outputs": [],
      "stateMutability": "nonpayable",
      "type": "function"
    },
    {
      "inputs": [
        {
          "internalType": "bytes4",
          "name": "interfaceId",
          "type": "bytes4"
        }
      ],
      "name": "supportsInterface",
      "outputs": [
        {
          "internalType": "bool",
          "name": "",
          "type": "bool"
        }
      ],
      "stateMutability": "view",
      "type": "function"
    },
    {
      "inputs": [],
      "name": "symbol",
      "outputs": [
        {
          "internalType": "string",
          "name": "",
          "type": "string"
        }
      ],
      "stateMutability": "view",
      "type": "function"
    },
    {
      "inputs": [
        {
          "internalType": "uint256",
          "name": "index",
          "type": "uint256"
        }
      ],
      "name": "tokenByIndex",
      "outputs": [
        {
          "internalType": "uint256",
          "name": "",
          "type": "uint256"
        }
      ],
      "stateMutability": "view",
      "type": "function"
    },
    {
      "inputs": [
        {
          "internalType": "address",
          "name": "owner",
          "type": "address"
        },
        {
          "internalType": "uint256",
          "name": "index",
          "type": "uint256"
        }
      ],
      "name": "tokenOfOwnerByIndex",
      "outputs": [
        {
          "internalType": "uint256",
          "name": "",
          "type": "uint256"
        }
      ],
      "stateMutability": "view",
      "type": "function"
    },
    {
      "inputs": [
        {
          "internalType": "uint256",
          "name": "tokenId",
          "type": "uint256"
        }
      ],
      "name": "tokenURI",
      "outputs": [
        {
          "internalType": "string",
          "name": "",
          "type": "string"
        }
      ],
      "stateMutability": "view",
      "type": "function"
    },
    {
      "inputs": [],
      "name": "totalSupply",
      "outputs": [
        {
          "internalType": "uint256",
          "name": "",
          "type": "uint256"
        }
      ],
      "stateMutability": "view",
      "type": "function"
    },
    {
      "inputs": [
        {
          "internalType": "address",
          "name": "from",
          "type": "address"
        },
        {
          "internalType": "address",
          "name": "to",
          "type": "address"
        },
        {
          "internalType": "uint256",
          "name": "tokenId",
          "type": "uint256"
        }
      ],
      "name": "transferFrom",
      "outputs": [],
      "stateMutability": "nonpayable",
      "type": "function"
    }
  ],
  "bytecode": "0x60806040523480156200001157600080fd5b50604051620032de380380620032de8339818101604052810190620000379190620001a3565b818181600090805190602001906200005192919062000075565b5080600190805190602001906200006a92919062000075565b5050505050620003ac565b8280546200008390620002bd565b90600052602060002090601f016020900481019282620000a75760008555620000f3565b82601f10620000c257805160ff1916838001178555620000f3565b82800160010185558215620000f3579182015b82811115620000f2578251825591602001919060010190620000d5565b5b50905062000102919062000106565b5090565b5b808211156200012157600081600090555060010162000107565b5090565b60006200013c620001368462000251565b62000228565b9050828152602081018484840111156200015b576200015a6200038c565b5b6200016884828562000287565b509392505050565b600082601f83011262000188576200018762000387565b5b81516200019a84826020860162000125565b91505092915050565b60008060408385031215620001bd57620001bc62000396565b5b600083015167ffffffffffffffff811115620001de57620001dd62000391565b5b620001ec8582860162000170565b925050602083015167ffffffffffffffff81111562000210576200020f62000391565b5b6200021e8582860162000170565b9150509250929050565b60006200023462000247565b9050620002428282620002f3565b919050565b6000604051905090565b600067ffffffffffffffff8211156200026f576200026e62000358565b5b6200027a826200039b565b9050602081019050919050565b60005b83811015620002a75780820151818401526020810190506200028a565b83811115620002b7576000848401525b50505050565b60006002820490506001821680620002d657607f821691505b60208210811415620002ed57620002ec62000329565b5b50919050565b620002fe826200039b565b810181811067ffffffffffffffff8211171562000320576200031f62000358565b5b80604052505050565b7f4e487b7100000000000000000000000000000000000000000000000000000000600052602260045260246000fd5b7f4e487b7100000000000000000000000000000000000000000000000000000000600052604160045260246000fd5b600080fd5b600080fd5b600080fd5b600080fd5b6000601f19601f8301169050919050565b612f2280620003bc6000396000f3fe608060405234801561001057600080fd5b506004361061010b5760003560e01c806342842e0e116100a257806395d89b411161007157806395d89b41146102de578063a22cb465146102fc578063b88d4fde14610318578063c87b56dd14610334578063e985e9c5146103645761010b565b806342842e0e146102325780634f6ccce71461024e5780636352211e1461027e57806370a08231146102ae5761010b565b80631249c58b116100de5780631249c58b146101aa57806318160ddd146101c857806323b872dd146101e65780632f745c59146102025761010b565b806301ffc9a71461011057806306fdde0314610140578063081812fc1461015e578063095ea7b31461018e575b600080fd5b61012a60048036038101906101259190611f82565b610394565b6040516101379190612394565b60405180910390f35b61014861040e565b60405161015591906123af565b60405180910390f35b61017860048036038101906101739190611fdc565b6104a0565b604051610185919061232d565b60405180910390f35b6101a860048036038101906101a39190611f42565b610525565b005b6101b261063d565b6040516101bf91906125d1565b60405180910390f35b6101d0610664565b6040516101dd91906125d1565b60405180910390f35b61020060048036038101906101fb9190611e2c565b610671565b005b61021c60048036038101906102179190611f42565b6106d1565b60405161022991906125d1565b60405180910390f35b61024c60048036038101906102479190611e2c565b610776565b005b61026860048036038101906102639190611fdc565b610796565b60405161027591906125d1565b60405180910390f35b61029860048036038101906102939190611fdc565b610807565b6040516102a5919061232d565b60405180910390f35b6102c860048036038101906102c39190611dbf565b6108b9565b6040516102d591906125d1565b60405180910390f35b6102e6610971565b6040516102f391906123af565b60405180910390f35b61031660048036038101906103119190611f02565b610a03565b005b610332600480360381019061032d9190611e7f565b610a19565b005b61034e60048036038101906103499190611fdc565b610a7b565b60405161035b91906123af565b60405180910390f35b61037e60048036038101906103799190611dec565b610b22565b60405161038b9190612394565b60405180910390f35b60007f780e9d63000000000000000000000000000000000000000000000000000000007bffffffffffffffffffffffffffffffffffffffffffffffffffffffff1916827bffffffffffffffffffffffffffffffffffffffffffffffffffffffff19161480610407575061040682610bb6565b5b9050919050565b60606000805461041d906127f6565b80601f0160208091040260200160405190810160405280929190818152602001828054610449906127f6565b80156104965780601f1061046b57610100808354040283529160200191610496565b820191906000526020600020905b81548152906001019060200180831161047957829003601f168201915b5050505050905090565b60006104ab82610c98565b6104ea576040517f08c379a00000000000000000000000000000000000000000000000000000000081526004016104e190612531565b60405180910390fd5b6004600083815260200190815260200160002060009054906101000a900473ffffffffffffffffffffffffffffffffffffffff169050919050565b600061053082610807565b90508073ffffffffffffffffffffffffffffffffffffffff168373ffffffffffffffffffffffffffffffffffffffff1614156105a1576040517f08c379a000000000000000000000000000000000000000000000000000000000815260040161059890612571565b60405180910390fd5b8073ffffffffffffffffffffffffffffffffffffffff166105c0610d04565b73ffffffffffffffffffffffffffffffffffffffff1614806105ef57506105ee816105e9610d04565b610b22565b5b61062e576040517f08c379a0000000000000000000000000000000000000000000000000000000008152600401610625906124b1565b60405180910390fd5b6106388383610d0c565b505050565b600080600161064a610664565b6106549190612685565b90506106603382610dc5565b5090565b6000600880549050905090565b61068261067c610d04565b82610de3565b6106c1576040517f08c379a00000000000000000000000000000000000000000000000000000000081526004016106b890612591565b60405180910390fd5b6106cc838383610ec1565b505050565b60006106dc836108b9565b821061071d576040517f08c379a0000000000000000000000000000000000000000000000000000000008152600401610714906123d1565b60405180910390fd5b600660008473ffffffffffffffffffffffffffffffffffffffff1673ffffffffffffffffffffffffffffffffffffffff168152602001908152602001600020600083815260200190815260200160002054905092915050565b61079183838360405180602001604052806000815250610a19565b505050565b60006107a0610664565b82106107e1576040517f08c379a00000000000000000000000000000000000000000000000000000000081526004016107d8906125b1565b60405180910390fd5b600882815481106107f5576107f461298f565b5b90600052602060002001549050919050565b6000806002600084815260200190815260200160002060009054906101000a900473ffffffffffffffffffffffffffffffffffffffff169050600073ffffffffffffffffffffffffffffffffffffffff168173ffffffffffffffffffffffffffffffffffffffff1614156108b0576040517f08c379a00000000000000000000000000000000000000000000000000000000081526004016108a7906124f1565b60405180910390fd5b80915050919050565b60008073ffffffffffffffffffffffffffffffffffffffff168273ffffffffffffffffffffffffffffffffffffffff16141561092a576040517f08c379a0000000000000000000000000000000000000000000000000000000008152600401610921906124d1565b60405180910390fd5b600360008373ffffffffffffffffffffffffffffffffffffffff1673ffffffffffffffffffffffffffffffffffffffff168152602001908152602001600020549050919050565b606060018054610980906127f6565b80601f01602080910402602001604051908101604052809291908181526020018280546109ac906127f6565b80156109f95780601f106109ce576101008083540402835291602001916109f9565b820191906000526020600020905b8154815290600101906020018083116109dc57829003601f168201915b5050505050905090565b610a15610a0e610d04565b8383611128565b5050565b610a2a610a24610d04565b83610de3565b610a69576040517f08c379a0000000000000000000000000000000000000000000000000000000008152600401610a6090612591565b60405180910390fd5b610a7584848484611295565b50505050565b6060610a8682610c98565b610ac5576040517f08c379a0000000000000000000000000000000000000000000000000000000008152600401610abc90612551565b60405180910390fd5b6000610acf6112f1565b90506000815111610aef5760405180602001604052806000815250610b1a565b80610af984611308565b604051602001610b0a929190612309565b6040516020818303038152906040525b915050919050565b6000600560008473ffffffffffffffffffffffffffffffffffffffff1673ffffffffffffffffffffffffffffffffffffffff16815260200190815260200160002060008373ffffffffffffffffffffffffffffffffffffffff1673ffffffffffffffffffffffffffffffffffffffff16815260200190815260200160002060009054906101000a900460ff16905092915050565b60007f80ac58cd000000000000000000000000000000000000000000000000000000007bffffffffffffffffffffffffffffffffffffffffffffffffffffffff1916827bffffffffffffffffffffffffffffffffffffffffffffffffffffffff19161480610c8157507f5b5e139f000000000000000000000000000000000000000000000000000000007bffffffffffffffffffffffffffffffffffffffffffffffffffffffff1916827bffffffffffffffffffffffffffffffffffffffffffffffffffffffff1916145b80610c915750610c9082611469565b5b9050919050565b60008073ffffffffffffffffffffffffffffffffffffffff166002600084815260200190815260200160002060009054906101000a900473ffffffffffffffffffffffffffffffffffffffff1673ffffffffffffffffffffffffffffffffffffffff1614159050919050565b600033905090565b816004600083815260200190815260200160002060006101000a81548173ffffffffffffffffffffffffffffffffffffffff021916908373ffffffffffffffffffffffffffffffffffffffff160217905550808273ffffffffffffffffffffffffffffffffffffffff16610d7f83610807565b73ffffffffffffffffffffffffffffffffffffffff167f8c5be1e5ebec7d5bd14f71427d1e84f3dd0314c0f7b2291e5b200ac8c7c3b92560405160405180910390a45050565b610ddf8282604051806020016040528060008152506114d3565b5050565b6000610dee82610c98565b610e2d576040517f08c379a0000000000000000000000000000000000000000000000000000000008152600401610e2490612491565b60405180910390fd5b6000610e3883610807565b90508073ffffffffffffffffffffffffffffffffffffffff168473ffffffffffffffffffffffffffffffffffffffff161480610e7a5750610e798185610b22565b5b80610eb857508373ffffffffffffffffffffffffffffffffffffffff16610ea0846104a0565b73ffffffffffffffffffffffffffffffffffffffff16145b91505092915050565b8273ffffffffffffffffffffffffffffffffffffffff16610ee182610807565b73ffffffffffffffffffffffffffffffffffffffff1614610f37576040517f08c379a0000000000000000000000000000000000000000000000000000000008152600401610f2e90612411565b60405180910390fd5b600073ffffffffffffffffffffffffffffffffffffffff168273ffffffffffffffffffffffffffffffffffffffff161415610fa7576040517f08c379a0000000000000000000000000000000000000000000000000000000008152600401610f9e90612451565b60405180910390fd5b610fb283838361152e565b610fbd600082610d0c565b6001600360008573ffffffffffffffffffffffffffffffffffffffff1673ffffffffffffffffffffffffffffffffffffffff168152602001908152602001600020600082825461100d919061270c565b925050819055506001600360008473ffffffffffffffffffffffffffffffffffffffff1673ffffffffffffffffffffffffffffffffffffffff16815260200190815260200160002060008282546110649190612685565b92505081905550816002600083815260200190815260200160002060006101000a81548173ffffffffffffffffffffffffffffffffffffffff021916908373ffffffffffffffffffffffffffffffffffffffff160217905550808273ffffffffffffffffffffffffffffffffffffffff168473ffffffffffffffffffffffffffffffffffffffff167fddf252ad1be2c89b69c2b068fc378daa952ba7f163c4a11628f55a4df523b3ef60405160405180910390a4611123838383611642565b505050565b8173ffffffffffffffffffffffffffffffffffffffff168373ffffffffffffffffffffffffffffffffffffffff161415611197576040517f08c379a000000000000000000000000000000000000000000000000000000000815260040161118e90612471565b60405180910390fd5b80600560008573ffffffffffffffffffffffffffffffffffffffff1673ffffffffffffffffffffffffffffffffffffffff16815260200190815260200160002060008473ffffffffffffffffffffffffffffffffffffffff1673ffffffffffffffffffffffffffffffffffffffff16815260200190815260200160002060006101000a81548160ff0219169083151502179055508173ffffffffffffffffffffffffffffffffffffffff168373ffffffffffffffffffffffffffffffffffffffff167f17307eab39ab6107e8899845ad3d59bd9653f200f220920489ca2b5937696c31836040516112889190612394565b60405180910390a3505050565b6112a0848484610ec1565b6112ac84848484611647565b6112eb576040517f08c379a00000000000000000000000000000000000000000000000000000000081526004016112e2906123f1565b60405180910390fd5b50505050565b606060405180602001604052806000815250905090565b60606000821415611350576040518060400160405280600181526020017f30000000000000000000000000000000000000000000000000000000000000008152509050611464565b600082905060005b6000821461138257808061136b90612859565b915050600a8261137b91906126db565b9150611358565b60008167ffffffffffffffff81111561139e5761139d6129be565b5b6040519080825280601f01601f1916602001820160405280156113d05781602001600182028036833780820191505090505b5090505b6000851461145d576001826113e9919061270c565b9150600a856113f891906128a2565b60306114049190612685565b60f81b81838151811061141a5761141961298f565b5b60200101907effffffffffffffffffffffffffffffffffffffffffffffffffffffffffffff1916908160001a905350600a8561145691906126db565b94506113d4565b8093505050505b919050565b60007f01ffc9a7000000000000000000000000000000000000000000000000000000007bffffffffffffffffffffffffffffffffffffffffffffffffffffffff1916827bffffffffffffffffffffffffffffffffffffffffffffffffffffffff1916149050919050565b6114dd83836117de565b6114ea6000848484611647565b611529576040517f08c379a0000000000000000000000000000000000000000000000000000000008152600401611520906123f1565b60405180910390fd5b505050565b6115398383836119b8565b600073ffffffffffffffffffffffffffffffffffffffff168373ffffffffffffffffffffffffffffffffffffffff16141561157c57611577816119bd565b6115bb565b8173ffffffffffffffffffffffffffffffffffffffff168373ffffffffffffffffffffffffffffffffffffffff16146115ba576115b98382611a06565b5b5b600073ffffffffffffffffffffffffffffffffffffffff168273ffffffffffffffffffffffffffffffffffffffff1614156115fe576115f981611b73565b61163d565b8273ffffffffffffffffffffffffffffffffffffffff168273ffffffffffffffffffffffffffffffffffffffff161461163c5761163b8282611c44565b5b5b505050565b505050565b60006116688473ffffffffffffffffffffffffffffffffffffffff16611cc3565b156117d1578373ffffffffffffffffffffffffffffffffffffffff1663150b7a02611691610d04565b8786866040518563ffffffff1660e01b81526004016116b39493929190612348565b602060405180830381600087803b1580156116cd57600080fd5b505af19250505080156116fe57506040513d601f19601f820116820180604052508101906116fb9190611faf565b60015b611781573d806000811461172e576040519150601f19603f3d011682016040523d82523d6000602084013e611733565b606091505b50600081511415611779576040517f08c379a0000000000000000000000000000000000000000000000000000000008152600401611770906123f1565b60405180910390fd5b805181602001fd5b63150b7a0260e01b7bffffffffffffffffffffffffffffffffffffffffffffffffffffffff1916817bffffffffffffffffffffffffffffffffffffffffffffffffffffffff1916149150506117d6565b600190505b949350505050565b600073ffffffffffffffffffffffffffffffffffffffff168273ffffffffffffffffffffffffffffffffffffffff16141561184e576040517f08c379a000000000000000000000000000000000000000000000000000000000815260040161184590612511565b60405180910390fd5b61185781610c98565b15611897576040517f08c379a000000000000000000000000000000000000000000000000000000000815260040161188e90612431565b60405180910390fd5b6118a36000838361152e565b6001600360008473ffffffffffffffffffffffffffffffffffffffff1673ffffffffffffffffffffffffffffffffffffffff16815260200190815260200160002060008282546118f39190612685565b92505081905550816002600083815260200190815260200160002060006101000a81548173ffffffffffffffffffffffffffffffffffffffff021916908373ffffffffffffffffffffffffffffffffffffffff160217905550808273ffffffffffffffffffffffffffffffffffffffff16600073ffffffffffffffffffffffffffffffffffffffff167fddf252ad1be2c89b69c2b068fc378daa952ba7f163c4a11628f55a4df523b3ef60405160405180910390a46119b460008383611642565b5050565b505050565b6008805490506009600083815260200190815260200160002081905550600881908060018154018082558091505060019003906000526020600020016000909190919091505550565b60006001611a13846108b9565b611a1d919061270c565b9050600060076000848152602001908152602001600020549050818114611b02576000600660008673ffffffffffffffffffffffffffffffffffffffff1673ffffffffffffffffffffffffffffffffffffffff168152602001908152602001600020600084815260200190815260200160002054905080600660008773ffffffffffffffffffffffffffffffffffffffff1673ffffffffffffffffffffffffffffffffffffffff168152602001908152602001600020600084815260200190815260200160002081905550816007600083815260200190815260200160002081905550505b6007600084815260200190815260200160002060009055600660008573ffffffffffffffffffffffffffffffffffffffff1673ffffffffffffffffffffffffffffffffffffffff16815260200190815260200160002060008381526020019081526020016000206000905550505050565b60006001600880549050611b87919061270c565b9050600060096000848152602001908152602001600020549050600060088381548110611bb757611bb661298f565b5b906000526020600020015490508060088381548110611bd957611bd861298f565b5b906000526020600020018190555081600960008381526020019081526020016000208190555060096000858152602001908152602001600020600090556008805480611c2857611c27612960565b5b6001900381819060005260206000200160009055905550505050565b6000611c4f836108b9565b905081600660008573ffffffffffffffffffffffffffffffffffffffff1673ffffffffffffffffffffffffffffffffffffffff168152602001908152602001600020600083815260200190815260200160002081905550806007600084815260200190815260200160002081905550505050565b6000808273ffffffffffffffffffffffffffffffffffffffff163b119050919050565b6000611cf9611cf484612611565b6125ec565b905082815260208101848484011115611d1557611d146129f2565b5b611d208482856127b4565b509392505050565b600081359050611d3781612e90565b92915050565b600081359050611d4c81612ea7565b92915050565b600081359050611d6181612ebe565b92915050565b600081519050611d7681612ebe565b92915050565b600082601f830112611d9157611d906129ed565b5b8135611da1848260208601611ce6565b91505092915050565b600081359050611db981612ed5565b92915050565b600060208284031215611dd557611dd46129fc565b5b6000611de384828501611d28565b91505092915050565b60008060408385031215611e0357611e026129fc565b5b6000611e1185828601611d28565b9250506020611e2285828601611d28565b9150509250929050565b600080600060608486031215611e4557611e446129fc565b5b6000611e5386828701611d28565b9350506020611e6486828701611d28565b9250506040611e7586828701611daa565b9150509250925092565b60008060008060808587031215611e9957611e986129fc565b5b6000611ea787828801611d28565b9450506020611eb887828801611d28565b9350506040611ec987828801611daa565b925050606085013567ffffffffffffffff811115611eea57611ee96129f7565b5b611ef687828801611d7c565b91505092959194509250565b60008060408385031215611f1957611f186129fc565b5b6000611f2785828601611d28565b9250506020611f3885828601611d3d565b9150509250929050565b60008060408385031215611f5957611f586129fc565b5b6000611f6785828601611d28565b9250506020611f7885828601611daa565b9150509250929050565b600060208284031215611f9857611f976129fc565b5b6000611fa684828501611d52565b91505092915050565b600060208284031215611fc557611fc46129fc565b5b6000611fd384828501611d67565b91505092915050565b600060208284031215611ff257611ff16129fc565b5b600061200084828501611daa565b91505092915050565b61201281612740565b82525050565b61202181612752565b82525050565b600061203282612642565b61203c8185612658565b935061204c8185602086016127c3565b61205581612a01565b840191505092915050565b600061206b8261264d565b6120758185612669565b93506120858185602086016127c3565b61208e81612a01565b840191505092915050565b60006120a48261264d565b6120ae818561267a565b93506120be8185602086016127c3565b80840191505092915050565b60006120d7602b83612669565b91506120e282612a12565b604082019050919050565b60006120fa603283612669565b915061210582612a61565b604082019050919050565b600061211d602583612669565b915061212882612ab0565b604082019050919050565b6000612140601c83612669565b915061214b82612aff565b602082019050919050565b6000612163602483612669565b915061216e82612b28565b604082019050919050565b6000612186601983612669565b915061219182612b77565b602082019050919050565b60006121a9602c83612669565b91506121b482612ba0565b604082019050919050565b60006121cc603883612669565b91506121d782612bef565b604082019050919050565b60006121ef602a83612669565b91506121fa82612c3e565b604082019050919050565b6000612212602983612669565b915061221d82612c8d565b604082019050919050565b6000612235602083612669565b915061224082612cdc565b602082019050919050565b6000612258602c83612669565b915061226382612d05565b604082019050919050565b600061227b602f83612669565b915061228682612d54565b604082019050919050565b600061229e602183612669565b91506122a982612da3565b604082019050919050565b60006122c1603183612669565b91506122cc82612df2565b604082019050919050565b60006122e4602c83612669565b91506122ef82612e41565b604082019050919050565b612303816127aa565b82525050565b60006123158285612099565b91506123218284612099565b91508190509392505050565b60006020820190506123426000830184612009565b92915050565b600060808201905061235d6000830187612009565b61236a6020830186612009565b61237760408301856122fa565b81810360608301526123898184612027565b905095945050505050565b60006020820190506123a96000830184612018565b92915050565b600060208201905081810360008301526123c98184612060565b905092915050565b600060208201905081810360008301526123ea816120ca565b9050919050565b6000602082019050818103600083015261240a816120ed565b9050919050565b6000602082019050818103600083015261242a81612110565b9050919050565b6000602082019050818103600083015261244a81612133565b9050919050565b6000602082019050818103600083015261246a81612156565b9050919050565b6000602082019050818103600083015261248a81612179565b9050919050565b600060208201905081810360008301526124aa8161219c565b9050919050565b600060208201905081810360008301526124ca816121bf565b9050919050565b600060208201905081810360008301526124ea816121e2565b9050919050565b6000602082019050818103600083015261250a81612205565b9050919050565b6000602082019050818103600083015261252a81612228565b9050919050565b6000602082019050818103600083015261254a8161224b565b9050919050565b6000602082019050818103600083015261256a8161226e565b9050919050565b6000602082019050818103600083015261258a81612291565b9050919050565b600060208201905081810360008301526125aa816122b4565b9050919050565b600060208201905081810360008301526125ca816122d7565b9050919050565b60006020820190506125e660008301846122fa565b92915050565b60006125f6612607565b90506126028282612828565b919050565b6000604051905090565b600067ffffffffffffffff82111561262c5761262b6129be565b5b61263582612a01565b9050602081019050919050565b600081519050919050565b600081519050919050565b600082825260208201905092915050565b600082825260208201905092915050565b600081905092915050565b6000612690826127aa565b915061269b836127aa565b9250827fffffffffffffffffffffffffffffffffffffffffffffffffffffffffffffffff038211156126d0576126cf6128d3565b5b828201905092915050565b60006126e6826127aa565b91506126f1836127aa565b92508261270157612700612902565b5b828204905092915050565b6000612717826127aa565b9150612722836127aa565b925082821015612735576127346128d3565b5b828203905092915050565b600061274b8261278a565b9050919050565b60008115159050919050565b60007fffffffff0000000000000000000000000000000000000000000000000000000082169050919050565b600073ffffffffffffffffffffffffffffffffffffffff82169050919050565b6000819050919050565b82818337600083830152505050565b60005b838110156127e15780820151818401526020810190506127c6565b838111156127f0576000848401525b50505050565b6000600282049050600182168061280e57607f821691505b6020821081141561282257612821612931565b5b50919050565b61283182612a01565b810181811067ffffffffffffffff821117156128505761284f6129be565b5b80604052505050565b6000612864826127aa565b91507fffffffffffffffffffffffffffffffffffffffffffffffffffffffffffffffff821415612897576128966128d3565b5b600182019050919050565b60006128ad826127aa565b91506128b8836127aa565b9250826128c8576128c7612902565b5b828206905092915050565b7f4e487b7100000000000000000000000000000000000000000000000000000000600052601160045260246000fd5b7f4e487b7100000000000000000000000000000000000000000000000000000000600052601260045260246000fd5b7f4e487b7100000000000000000000000000000000000000000000000000000000600052602260045260246000fd5b7f4e487b7100000000000000000000000000000000000000000000000000000000600052603160045260246000fd5b7f4e487b7100000000000000000000000000000000000000000000000000000000600052603260045260246000fd5b7f4e487b7100000000000000000000000000000000000000000000000000000000600052604160045260246000fd5b600080fd5b600080fd5b600080fd5b600080fd5b6000601f19601f8301169050919050565b7f455243373231456e756d657261626c653a206f776e657220696e646578206f7560008201527f74206f6620626f756e6473000000000000000000000000000000000000000000602082015250565b7f4552433732313a207472616e7366657220746f206e6f6e20455243373231526560008201527f63656976657220696d706c656d656e7465720000000000000000000000000000602082015250565b7f4552433732313a207472616e736665722066726f6d20696e636f72726563742060008201527f6f776e6572000000000000000000000000000000000000000000000000000000602082015250565b7f4552433732313a20746f6b656e20616c7265616479206d696e74656400000000600082015250565b7f4552433732313a207472616e7366657220746f20746865207a65726f2061646460008201527f7265737300000000000000000000000000000000000000000000000000000000602082015250565b7f4552433732313a20617070726f766520746f2063616c6c657200000000000000600082015250565b7f4552433732313a206f70657261746f7220717565727920666f72206e6f6e657860008201527f697374656e7420746f6b656e0000000000000000000000000000000000000000602082015250565b7f4552433732313a20617070726f76652063616c6c6572206973206e6f74206f7760008201527f6e6572206e6f7220617070726f76656420666f7220616c6c0000000000000000602082015250565b7f4552433732313a2062616c616e636520717565727920666f7220746865207a6560008201527f726f206164647265737300000000000000000000000000000000000000000000602082015250565b7f4552433732313a206f776e657220717565727920666f72206e6f6e657869737460008201527f656e7420746f6b656e0000000000000000000000000000000000000000000000602082015250565b7f4552433732313a206d696e7420746f20746865207a65726f2061646472657373600082015250565b7f4552433732313a20617070726f76656420717565727920666f72206e6f6e657860008201527f697374656e7420746f6b656e0000000000000000000000000000000000000000602082015250565b7f4552433732314d657461646174613a2055524920717565727920666f72206e6f60008201527f6e6578697374656e7420746f6b656e0000000000000000000000000000000000602082015250565b7f4552433732313a20617070726f76616c20746f2063757272656e74206f776e6560008201527f7200000000000000000000000000000000000000000000000000000000000000602082015250565b7f4552433732313a207472616e736665722063616c6c6572206973206e6f74206f60008201527f776e6572206e6f7220617070726f766564000000000000000000000000000000602082015250565b7f455243373231456e756d657261626c653a20676c6f62616c20696e646578206f60008201527f7574206f6620626f756e64730000000000000000000000000000000000000000602082015250565b612e9981612740565b8114612ea457600080fd5b50565b612eb081612752565b8114612ebb57600080fd5b50565b612ec78161275e565b8114612ed257600080fd5b50565b612ede816127aa565b8114612ee957600080fd5b5056fea264697066735822122054cc5830b79a7cc53cffab01f1aa38301a0020289abfac00053026fa5bb2001a64736f6c63430008070033",
  "linkReferences": {},
  "deployedLinkReferences": {}
}